:020000040800F2
:10000000309300205D020008F1670008F3670008E4
:10001000F5670008F7670008F967000800000000AE
:10002000000000000000000000000000FB67000866
:10003000FD67000800000000FF6700080368000873
:1000400077020008770200087702000877020008AC
:10005000770200087702000877020008770200089C
:100060007702000877020008770200082352000890
:10007000295200082F520008355200083B52000850
:100080004152000847520008770200087702000832
:10009000770200087702000877020008770200085C
:1000A000770200087702000877020008770200084C
:1000B000770200087702000877020008770200083C
:1000C000770200087702000877020008770200082C
:1000D000770200087702000877020008770200081C
:1000E000770200087702000877020008770200080C
:1000F0007702000877020008770200084D520008D6
:1001000077020008770200087702000877020008EB
:1001100077020008770200087702000877020008DB
:1001200053520008575200085D52000863520008FD
:100130006952000877020008770200087702000879
:1001400077020008770200087702000877020008AB
:100150006F520008755200087B52000877020008B1
:10016000770200087702000877020008770200088B
:10017000770200087702000877020008770200087B
:10018000770200087702000877020008770200086B
:10019000770200087702000877020008770200085B
:1001A00077020008770200087702000800F002F8E2
:1001B00000F045F80AA090E8000C82448344AAF1BC
:1001C0000107DA4501D100F03AF8AFF2090EBAE8BA
:1001D0000F0013F0010F18BFFB1A43F0010318477B
:1001E00088880000A8880000103A24BF78C878C129
:1001F000FAD8520724BF30C830C144BF04680C602D
:10020000704700000023002400250026103A28BF74
:1002100078C1FBD8520728BF30C148BF0B60704778
:10022000642906F05384002070471FB507F096F943
:100230009DE8030006F02CFD1FBD10B510BD06F0B3
:10024000FBFD1146FFF7F1FF05F083F906F019FEFB
:1002500003B4FFF7F2FF03BC06F04AFE09488047EB
:1002600009480047FEE7FEE7FEE7FEE7FEE7FEE798
:10027000FEE7FEE7FEE7FEE704480549054A064BB0
:1002800070470000CB680008AD010008308D0020E9
:1002900030930020308F0020308F00202849084301
:1002A00028490860704730B50F23C27801780125CE
:1002B000FAB1244A126801F1E02102F4E062C2F5C9
:1002C000E062C2F30722C2F10404D3404278A240A4
:1002D00084781C401443220181F80024007800F047
:1002E0001F018D404009800000F1E020C0F800515E
:1002F00030BD01F01F0085404809800000F1E0207A
:10030000C0F8805130BD104A114001430D48001F14
:10031000016070470B4A121D0029116801D001438A
:1003200000E08143116070474FF0E0210428086924
:1003300003D020F004000861704740F00400FAE7A1
:100340000000FA050CED00E080FFFF1FF94801688E
:1003500041F001010160F74A002108321160026892
:10036000F54B1A400260031DF44A1A60F14BF44A3F
:1003700084331A60F14A103A1B1D1A60026822F495
:1003800080220260EB480C300160181D016070474C
:10039000E8490022891C0A70087070470246002054
:1003A000510901290CD002290CD0E24974310968A5
:1003B00002F01F02012393400B4200D0012070473E
:1003C000DC49F4E7DB497031F1E718B500204FF460
:1003D000A04400903120FFF7E1FF0099491C0091F3
:1003E000A14201D00028F5D03120FFF7D7FF002827
:1003F00000D0012018BDCF4A116821F0F80141EA70
:10040000C00010607047CF4908607047C94900229A
:1004100070310A700A70012802D0042801D1052029
:1004200008707047C8490860704741EA82115A084D
:1004300010B5C64B029C03EB02421143014341EA53
:100440000460BC49091D086010BDBE4908667047BC
:10045000800140EA0160B74940EA027084310860D7
:100460007047B84988667047800140EA0160B14929
:1004700040EA0270883108607047B24908677047E7
:10048000B049C8647047AB4B08331A68084322F080
:10049000EC62104318607047A64B08331A68084393
:1004A00022F07842104318607047A24A083211685F
:1004B00021F003010143116070479E480830006835
:1004C00000F00C0070479B4A0832116821F0F001DF
:1004D000014311607047974A0832116821F4E051D6
:1004E000014311607047934A0832116821F460415A
:1004F00041EAC0001060704770B58E4B0833196830
:10050000934C11F00C0104D0924E042903D0082919
:1005100003D004601BE0066019E0864A121D1168D2
:10052000C1F38055116801F03F0115B1B6FBF1F13F
:1005300001E0B4FBF1F114681268C4F3881461435C
:10054000C2F30142521C5200B1FBF2F10160196882
:100550000F2202EA1111804A545C0168E1404160B7
:100560001C68072505EA9424145D21FA04F48460CC
:100570001B6805EA5333D25CD140C16070BDC0F343
:100580000121032908D16B4B08331968734A21F400
:10059000F81102400A431A60664970310A68C0F3D4
:1005A0000B0002430A60704767494439086070478E
:1005B00065494039086070476249C1F85C0170477D
:1005C0005C4A8C32116821F440110143116070477C
:1005D000584A8C32116821F4400101431160704780
:1005E000544A8C321168401E21F01F0101431160F2
:1005F0007047504A8C3211686FF0FF0321F4F851B4
:1006000003EB00200843106070474A4A8C3211689F
:1006100021F440310143116070475149C1F8E001B4
:100620007047444A30320029116801D0014300E08C
:100630008143116070473F4A34320029116801D06C
:10064000014300E08143116070473A4A3832002983
:10065000116801D0014300E0814311607047354AC1
:1006600040320029116801D0014300E0814311604C
:100670007047304A44320029116801D0014300E03C
:100680008143116070472B4A10320029116801D054
:10069000014300E0814311607047264A143200296B
:1006A000116801D0014300E0814311607047214A85
:1006B00018320029116801D0014300E08143116024
:1006C00070471C4A20320029116801D0014300E024
:1006D000814311607047174A24320029116801D004
:1006E000014300E0814311607047124A50320029F3
:1006F000116801D0014300E08143116070470D4A49
:1007000054320029116801D0014300E08143116097
:100710007047084A58320029116801D0014300E0AF
:10072000814311607047034A60320029116819D073
:10073000014318E000380240FFFFF6EA10300024C1
:100740000030002000004742800E47420000FFFFBB
:100750000024F40040787D0100000020FFFCFF0F22
:1007600000104742814311607047194A00291168FF
:1007700001D0014300E081431160704714490C31FE
:100780000128086803D020F008000860704740F096
:100790000800FAE70E4A573A0029117801D00143C0
:1007A00000E081431170704709481030016841F042
:1007B0008071016070470146054A0020583A12686E
:1007C0000A4200D00120704701495639087070472D
:1007D00064380240C14910B5884202D10121841415
:1007E00024E0BF49884202D10121041404E0BD493C
:1007F00088420AD10121C4132046FFF762FF204638
:10080000BDE810400021FFF75CBFB749884202D124
:10081000012144140AE0B549884202D101210C05A6
:1008200004E0B34988420AD101214C052046FFF774
:1008300052FF2046BDE810400021FFF74CBF10BD1D
:1008400030B502884C8802F441530A88CD8822438F
:100850008C882C4322430C8922434C8922438C8967
:100860002243CC8922431A430280828B22F4006205
:100870008283098A018230BDF0B502220023858B74
:1008800001244FF24006354085830284868B8D68B3
:10089000022D3DD08A8802B10224964A13681B02B9
:1008A00003D5136823F400031360924A7C32136863
:1008B0001268C3F388138F4FC2F302723F1F3D6863
:1008C0003F6805F03F057F0201D58B4F00E08B4F5D
:1008D000B7FBF5F55D43B5FBF2F2CB88B3F5007FCE
:1008E0002BD06301B2FBF3F202EB82028B68520061
:1008F000B2FBF3F2521D92B20A23B2FBF3F202F002
:100900000103D21A4FF6FF74C2F34F0204EA032325
:10091000941EFE2C01D302220023CC881A431443D8
:1009200004840A884B881A438B8889890B431A43AD
:10093000324342F400618183F0BD120AD4E7002102
:10094000018041808180C180018141818181C1819B
:100950000721018270470021018041808180C18090
:1009600002228260818170470029018802D041F013
:10097000400101E021F04001018070470029818B96
:1009800002D041F4806101E021F4806181837047ED
:10099000028822F40062028002880A4302807047C3
:1009A000B1F5804F018803D021F480410180704768
:1009B00041F48041FAE7A1F57E420188FF3A02D076
:1009C00041F4807101E021F48071018070470029B9
:1009D000818802D041F0040101E021F0040181800E
:1009E00070470029818802D041F0100101E021F018
:1009F00010018180704730B5828B00234FF2400494
:100A00002240828302220284848B0A884FF48075FC
:100A1000B2F5007F00D002B92B464A888D888989BB
:100A20002A4319430A43224342F40061818330BDC3
:100A300080897047818170470029018802D041F484
:100A4000005101E021F4005101807047018841F418
:100A5000805101807047012901D0008B7047808A46
:100A60007047008A7047002A828801D00A4300E05C
:100A70008A4382807047090901238B40002A8288BB
:100A800099B201D00A4300E08A438280704702464F
:100A9000002012890A4200D001207047C943018119
:100AA000704730B501F00F030125024605FA03F443
:100AB0000020A3B2090905FA01F49188A4B21289B1
:100AC00021401A4202D0002900D0012030BD01F09F
:100AD0000F0201219140C94301817047003001405C
:100AE00000380040003C004000340140005001400C
:100AF000005401400838024040787D010024F40091
:100B000010B501218C062046FFF7E5FD2046BDE823
:100B100010400021FFF7DFBD30B5F74A1368F749F1
:100B20000B401360038A146845692C4344EA03446C
:100B30001460121D13680B401360038B1468C569A1
:100B40002C4344EA03441460121D13680B401360E5
:100B5000038C1468456A2C4344EA03441460121D54
:100B600013680B401360018D1368C46A234343EA82
:100B700001431360111D0A68E14B1A400A60D0E975
:100B800000231A43D0E9023423431A430B681A4363
:100B90000A60416B0A02018E0B04D74924310C68AC
:100BA00004F07F440C600C68806B134304431C43C7
:100BB0000C6030BD0021016041608160C160016155
:100BC00041618161C161016241628162C16201630F
:100BD000416381637047C84910310028086802D01A
:100BE00040F0010001E020F0010008607047C249B8
:100BF00010310028086802D040F4803001E020F471
:100C0000803008607047BC4910310A68BC4B1A40FC
:100C10000A600A680B68C2F302120968C3F3022370
:100C2000C1F302310260C0E9013170470221016065
:100C3000416081607047B049383108607047AE4903
:100C40001C310860704770B58A88436803F47043AC
:100C500043600B6843EA024343608A89836803F474
:100C6000704383608B6843EA02438360026922F029
:100C7000070202610A690261CA6991F8243014020C
:100C80000A8C85691204002686618D6942EA036236
:100C9000254315438561426922F0FF0242614A699A
:100CA0004261C26940F207739A43C261D1E90A23E3
:100CB0001A43C261826A86620A6B82620A8FC36AC1
:100CC00003F0E023C3624B6B43EA0243C362026B4F
:100CD0006FF30A020263C96B016370BD00210160FA
:100CE00041608160FF22C160C0E904128161C1617D
:100CF0004FF4C0620162C0E909120722C0E90B216A
:100D000041638163C16370470029016802D041F0EB
:100D1000010101E021F001010160704776493C3199
:100D20000A6800220A600A680968120C89B2C0E9E0
:100D30000021704700210160416070476E494031D9
:100D40000968014201D0012070470020704710B5AA
:100D500092B1026842F0020202604A68C46813025B
:100D60000A8904F07F44C460C468096843EA024306
:100D70000C431C43C46003E0016821F002010160E0
:100D80005D4901201C31086010BD002101604160F7
:100D9000816070470029016802D041F0100101E034
:100DA00021F010010160544901201C310860704796
:100DB00010B58A6814028A8913040A7849681C43AA
:100DC00041EA02612143016410BD002101604160DC
:100DD0008160C160704710B5436803F4704343609D
:100DE000836803F470438360434B1B1D1C6801EB55
:100DF000144312FA84F20169521C5B1CF1B10129FF
:100E00001ED004291ED002291CD003291AD007297C
:100E100018D00121C46AC4F30C04E41EB4FBF1F140
:100E2000046B1944491EC4F30A0443EA0141144403
:100E30004160641E42EA0441816010BD0421E9E77B
:100E40000321E7E70221E5E74161704781627047CE
:100E5000F0B503690BB3012B21D0042B21D0022B59
:100E60001FD0032B1DD0072B1BD001234468C4F3D4
:100E70000C0584684E19C4F30C041719761E45EA54
:100E8000064545607F1E44EA074484605943CB1CF5
:100E900043EA0141C1620263F0BD0423E6E7032394
:100EA000E4E70223E2E702690AB3012A21D0042A17
:100EB00028D0022A26D0032A24D0072A22D00122B1
:100EC000C36A1B0CB3FBF2F3F1B101291ED0042954
:100ED0001ED002291CD003291AD0072918D00122BC
:100EE0005343DA1C42EA0342C262016170470422A2
:100EF000E6E70322E4E700000868014000F800F09C
:100F00008F88FE0F0222DBE70422E9E70322E7E7EE
:100F10000222E5E7144A0029116801D0014300E0EC
:100F200081431160704701460F4A0020121D12686C
:100F30000A4200D0012070470B4908310860704711
:100F4000094A0021121D1268024200D00121064AFE
:100F50001268024202D009B1012070470020704798
:100F60000149083108607047346801408100A1F1EF
:100F7000C04140B143F2D20008606FF07040486059
:100F8000C1F8040170474FF0204243F2DB001060CB
:100F9000F3E730B501688900A1F1C0410B68FE4A52
:100FA0001340D0E901242243D0E903452C432243D6
:100FB0004469224384692243C4692243046A224368
:100FC000446A2243846A2243C46A2243046B224354
:100FD000446B22431A430A608168082907D10168DB
:100FE0008900A1F1C0410A6842F040020A60416BE9
:100FF000B1F5801F15D1016899B14FF020414A68C1
:101000000B6822F4700243F480130B600B6843F406
:1010100080730B60836BE14C1B8A04EB0353134317
:101020004B60816BD1E9002342EA03128B688C8903
:101030001B0243EA04431A430B8A42EA03520B7D24
:10104000896942EA03620A4301688900A1F1C0414B
:101050004A60816AB1F5804F08D000686FF0704136
:101060008000A0F1C040C0F8041130BD01688900C3
:10107000A1F1C041D1F80421C06BC94B1A40D0E99D
:10108000003443EA041384688589240244EA054451
:101090008069234303431343C1F8043130BD002169
:1010A0000222C0E900121022C0E902120161C162ED
:1010B000416112028161C0E907125200C0E90921B1
:1010C00001634163B7498163C16370478000A0F148
:1010D000C0400029016802D041F0010101E0B24A9C
:1010E00011400160704710B5182340244FF0204193
:1010F0004FF0FC32102805D041F8803F4C608A60E8
:10110000CA6010BD0B664C668A66CA6610BD30B5F3
:1011100002684FF02041102A1BD0D1F88020A34B49
:1011200002EA0302D0E9013443EA0403D0E90345AB
:1011300044EA050443EA0403446943EA4423846916
:1011400043EA443343EA020343F0080403D18A6EBE
:1011500003E00A6EE3E7D1F88820C269D2E90035DE
:1011600043EA05231589127B4FEA054545EA0262E9
:1011700043EA020301D1CA6E01E0D1F88C20006A73
:10118000D0E9002542EA05220589007B4FEA0545A2
:1011900045EA006042EA000203D10C668B66CA662B
:1011A00030BD41F8804F8B60CA6030BD10220021F5
:1011B000C0E90021C0E90221016141618161C26988
:1011C000FC211160C2695160C2699160C269D1603D
:1011D000026A1160026A5160026A9160006AC1602D
:1011E00070474FF0204251B1102804D052F8800FC0
:1011F00040F004000AE0106E40F004000AE06A4982
:10120000C91E102804D052F8800F084010607047A3
:10121000106E0840106670474FF0204251B1102800
:1012200004D052F8800F40F040000AE0106E40F009
:1012300040000AE05C493F39102804D052F8800F82
:10124000084010607047106E0840106670474FF0FD
:101250002041102802D0D1F894007047486F7047A1
:101260004FF02040182140F8A01F002141604FF0AE
:10127000FC318160C1600161704710B54FF02041C1
:1012800051F8A02F4A4B84681A4043685B0243EA36
:10129000443304681443234343F010020A608A680D
:1012A000C268D2E9003443EA04231489127B24047F
:1012B00044EA026213438B60CA680269D2E90034CF
:1012C00043EA04231489127B240444EA0262134390
:1012D000CB600A694069D0E9002342EA032203890E
:1012E000007B1B0443EA006002430A6110BD002139
:1012F000016041608160C268FC211160C268516078
:10130000C2689160C268D16002691160026951606F
:10131000026991600269D16042691160426951605D
:10132000426991604069C16070474FF020410028D8
:1013300051F8A00F02D040F0040002E01A4AD21E79
:101340001040086070478000A0F1C0404FF4347135
:10135000C0F840116FF07041C0F848114FF02041C3
:101360000020C1F85001C1F85401C1F8580170477C
:10137000F0B50668B100A1F1C041D1F84011CD0B24
:10138000D0E901121143D0E903231A431143426902
:10139000ED03114382690DE08000E7FF0000F0FFDC
:1013A0000000F0CF70750008FEFF0F008101F0FF14
:1013B000CD01FEFF1143C269046A1143436A214310
:1013C000194329434FF02045F6B3D5F84061224335
:1013D0006FF30E0633431A43C5F8402102689200AA
:1013E000A2F1C042C2F840116FF00F0213011403C2
:1013F0000168160449B38900A1F1C041D1F8481130
:1014000001F0704C816AD1E9007E02EB0E127F1E62
:1014100017438A6803EB022217430A8A04EB02424D
:101420001743D5F8482147EA0C0702F07043CA6811
:10143000898A120306EB0151A2F580520A431A432E
:10144000C5F84821006801E006E008E08000A0F14E
:10145000C040C0F84871F0BDC5F84011C4E7D5F8E8
:101460004811806A01F07047D0E9001C02EB0C12B1
:10147000491E1143826803EB02221143924BC2685A
:1014800003EB02321143028A04EB02421143828AC7
:10149000007E06EB025211431A0302EB0060014387
:1014A0003943C5F84811F0BD0022026042601021A6
:1014B00040238260C0E90313802343614B01C0E9EC
:1014C000063202624262826A1160826A5160826AF6
:1014D0009160826AD160826A1161826A5161806A18
:1014E00081617047D0E90012114382686FF01F03D9
:1014F000C06803EB421242EA402001434FF0204013
:10150000C0F8501170474FF020410028D1F8580121
:1015100003D000F018008008704700F00600704704
:101520004FF02041D1F8542142EA4000C1F8540163
:1015300070474FF02041D1F8502142EA4010C1F8E5
:10154000500170478000A0F1C0400029D0F8401140
:1015500002D041F4007102E047F6FF521140C0F89A
:101560004011704730B54FF480752C014FF0204387
:10157000A2B1102804D0A84205D153F8840F06E088
:10158000586E084313E0A04204D153F8A40F084357
:10159000186030BDD3F85401084313E0102804D07C
:1015A000A84206D153F8840F07E0586E8843586666
:1015B00030BDA04203D153F8A40F8843E8E7D3F825
:1015C00054018843C3F8540130BD00224FF020433A
:1015D00010280AD0B0F5807F09D0B0F5805F09D01F
:1015E000D3F85801814309D107E0586EFAE7D3F8E0
:1015F0008400F7E7D3F8A400F4E70122104670470F
:101600004FF0204210280BD0B0F5807F0CD0B0F501
:10161000805F0CD0D2F854018843C2F8540170475F
:10162000506E88435066704752F8840F01E052F8BC
:10163000A40F88431060704730B500231C464FF05C
:101640002045102815D0B0F5807F14D0B0F5805F0C
:1016500014D0D5F85421D5F8584102EA010580B1DB
:1016600001280ED002EAD10008B105B101231846C5
:1016700030BD6A6EF1E7D5F88420EEE7D5F8A420F6
:10168000EBE704F00100EFE74FF0204210280CD008
:10169000B0F5807F0ED0B0F5805F0ED0D2F8540147
:1016A00040F00100C2F854017047506E20EAD100AA
:1016B0005066704752F8840F01E052F8A40F20EAF8
:1016C000D10010607047000000F0FFFF10B501214D
:1016D000CC052046FEF7D7FF2046BDE8104000218C
:1016E000FEF7D1BF30B5A34B00241968A24A1140C0
:1016F00019601968026811431960596B21F00701DC
:101700005963596B426811435963416841B30129D8
:101710002DD0022930D00329C16832D00A010169D5
:101720004469090224038568214315430D43996BDD
:101730000D439D638169D963196C6FF30D011964C1
:10174000196CC26911431964818C5A6C02F04042D1
:101750005A645A6C006A024342EA01425A6430BD3C
:10176000C168047D0A02018A09042406DBE7C16816
:101770000A02018A0904D6E7C1684A010169C9025F
:10178000D1E74A01016944698902E403CBE70021FA
:1017900001604160C1608160016141618161C1613D
:1017A0000162416270477348016841F001010160C4
:1017B00070477048016841F00401016070476D494D
:1017C0000028086802D040F0020001E020F002008A
:1017D0000860704770B567490268CA600A696FF3AC
:1017E0000D020A610A6943681A430A61CA69634BB8
:1017F0001A40CA61848AD0E902622504036946EA74
:101800000216047E45EA03231E43CA6946EA0466BB
:101810001643CE610A6A02F07F420A62026A838C32
:101820000C6A1202C56942EA03422C4314430C625B
:10183000806AC86270BD0021016041608160C16042
:10184000016141618161C1610162416281627047F0
:1018500070B5484902684A618A696FF30D028A616E
:101860008A6943681A438A614A6A444B1A404A6249
:10187000848AD0E902622504036946EA0216047EDE
:1018800045EA03231E434A6A46EA046616434E624B
:101890008A6A02F07F428A62026A838C8C6A120230
:1018A000C56942EA03422C4314438C62806A086390
:1018B00070BD0021016041608160C16001614161D2
:1018C0008161C161016241628162704729490028DA
:1018D000C86902D040F0200001E020F02000C8617B
:1018E000704724490028486A02D040F0200001E0F7
:1018F00020F02000486270471E4A59B1D16C4FF663
:1019000001739943D164D16C000240F0010001439E
:10191000D1647047D06C20F00100D0647047154945
:1019200088647047134A0029116801D0014300E020
:101930008143116070470F4A0146002052680A42F5
:1019400000D0012070470B4988607047094B10B5E3
:101950005C68002114EA102F00D001211A680242AD
:1019600002D009B1012010BD002010BD0149000ABC
:101970008860704700B00240FCE0FCFFC000FC0043
:10198000D24910B5884202D101214C050AE0D04964
:10199000884202D101218C0504E0CE4988420AD157
:1019A0000121CC052046FEF78CFE2046BDE8104004
:1019B0000021FEF786BE10BD7FB5044680880D4627
:1019C00020F03F066846FEF797FDC3490298B0FB3A
:1019D000F1F189B20E43A680228822F00102228012
:1019E000BE4B2A689A421BD85200B0FBF2F080B27C
:1019F000042800D20420491C2184A083208840F0C0
:101A00000100208020884FF6F5310840A9886A89B6
:101A1000114301432180A8892989084320817FBD82
:101A2000EB88A3F53F46FF3E0BD002EBC20303EB6E
:101A30000212B0FBF2F080B240F48040020506D002
:101A400007E002EB4202B0FBF2F080B2F6E740F0B2
:101A500001004FF4967251434FF47A72B1FBF2F1E8
:101A600040F40040C7E741F28831016000218180E5
:101A70004BF6FF72C280018141814FF48041818128
:101A800070470029018802D041F0010101E021F0F6
:101A90000101018070470029818C02D021F01001E2
:101AA00001E041F0100181847047828C01F00F0148
:101AB00022F00F021143818470470029018802D06F
:101AC00041F4807101E021F48071018070470029A8
:101AD000018802D041F4007101E021F4007101801D
:101AE000704712B141F0010101E001F0FE010182F5
:101AF00070470029018802D041F4806101E021F49F
:101B0000806101807047828901F0FE0122F0FE02AF
:101B10001143818170470029818902D041F0010180
:101B200001E021F00101818170470029018802D084
:101B300041F0400101E021F040010180704700299F
:101B4000018802D041F4004101E0C1F30E0101809F
:101B500070470029018803D021F08001018070477F
:101B600041F08001FAE7B1F5804F818B02D021F47A
:101B7000804101E041F4804181837047B1F5006FFD
:101B8000018803D021F400610180704741F40061B5
:101B9000FAE7B1F5005F018803D021F4005101801C
:101BA000704741F40051FAE70029018802D041F062
:101BB000100101E021F0100101807047018270479F
:101BC000008AC0B270470029018802D041F48051D8
:101BD00001E021F4805101807047B1F5006F018868
:101BE00003D021F400610180704741F40061FAE7FD
:101BF0000029018802D041F0200101E021F02001FC
:101C000001807047008B000A70470029818802D04C
:101C100041F4006101E021F40061818070470029F6
:101C2000818802D041F4805101E021F4805181800B
:101C3000704708B508440090008808BD002A8288D3
:101C400001D00A4300E08A438280704703460020A7
:101C50009A8A1B8B42EA034222F07F42914300D1D1
:101C600001207047818A008B41EA004121F07F40CA
:101C700070470CB50246002000920A0F21F07F4108
:101C8000019202D0009A143202E0009A090C183234
:101C9000009212680A4200D001200CBDC943818223
:101CA000704710B5034600209A884FF4E06404EAB8
:101CB00011449B8A224021F07F410B4202D0002A2E
:101CC00000D0012010BDC9438182704700540040FC
:101CD00000580040005C004040420F00A086010018
:101CE00070B55A484168491C4160816811B18168EA
:101CF000491E8160AFF300800024554E18E006EBCA
:101D00008405686890B1017B81B1826872B1521E0E
:101D1000826069680AD1486909698847686801680A
:101D200081606868416809B900210173641CE4B2EC
:101D30003078A042E3D870BD464801684FF47A700D
:101D4000B1FBF0F0401EB0F1807F12D24FF0E022E4
:101D50005061414BF02083F8140D00209061072062
:101D600010613E48B1FBF0F13848C16001210170BB
:101D70007047FEE735480078002805D04FF0E02096
:101D8000016941F00201016170474FF0E0200169F3
:101D900021F00201016170472DE9F0472C4C054606
:101DA000DDF8209020781E4617468846052802D385
:101DB0000020BDE8F087182004F0F6FD0028F8D0D8
:101DC0000560C0E901850773C0E90469217804EB67
:101DD000810148602178491C2170EAE71C4B30B42E
:101DE00000211A7806E003EB81046468844203D082
:101DF000491CC9B28A42F6D88A4218D003EB810046
:101E00004068EFF3108472B605E003EB8102491CD1
:101E10009568C9B255601A78521E8A42F5DC197865
:101E2000491E197004B962B630BC04F0ECBD30BC78
:101E300070470021017370470121017370470168E9
:101E4000816070474160704701607047100000205A
:101E5000600000204C0000200FE000E0C0C62D0014
:101E60001CB503210020CDE9000103464C030122EB
:101E70002146194801F026FD17481A3004801CBD80
:101E80001CB500210220CDE900010B460A460121C4
:101E9000124801F017FD1CBD10480069C107104829
:101EA00005D0017829B90121017008467047002149
:101EB00001700020704709480069C107084803D035
:101EC000012101700020704701780029FAD000211B
:101ED000017001207047000000180240000002401D
:101EE000200000200288520601D400207047028999
:101EF0009207FCD002891206F9D4818101898907F1
:101F0000FCD001890906F9D48089C0B2704770B548
:101F10000D465C4902240C805B4E01463046FFF7BB
:101F2000E1FF29463046FFF7DDFF5648801E04805A
:101F300070BD70B5534902240C80534D40F08001B0
:101F40002846FFF7CFFFFF212846FFF7CBFF4D497B
:101F5000891E0C8070BD1CB5002101200246CDE910
:101F6000000148480B4602211A3801F0ABFC4549F4
:101F70000220891E08801CBD10B50446FFF7EBFF48
:101F80000021414800F0DDF90F20FFF7D2FFD428EF
:101F900001D0012010BDFF212020FFF7B8FF24B1A0
:101FA000012C04D0022C04D007E0002102E0102113
:101FB00000E020212320FFF7AAFF3448002104700D
:101FC0002120FFF7A4FF10212420FFF7A0FF00200D
:101FD00010BD10B504462820FFF7ABFF2080292054
:101FE000FFF7A7FF218841EA002020802A20FFF781
:101FF000A0FF60802B20FFF79CFF618841EA002052
:1020000060802C20FFF795FFA0802D20FFF791FF27
:10201000A18841EA002001B21C48A180007850B399
:1020200001282BD09FED1A0AB4F9000000EE900AA7
:10203000F8EEE00A60EE800AFDEEE00A10EE900A8B
:102040002080B4F9020000EE900AF8EEE00A60EE9B
:10205000800AFDEEE00A10EE900A00EE901A608011
:10206000F8EEE00A20EE800ABDEEC00A10EE100A7B
:10207000A080002010BD9FED070AD5E79FED060A5E
:10208000D2E700001A080240005001402100002061
:10209000295C8F3D295C0F3C295C8F3C70471CB547
:1020A00030B1032803D10521FE48FFF7F7FF1CBD1F
:1020B00005210320CDE9000100231A464FF4E04139
:1020C000F94801F010FC1CBD7CB50525F74E032432
:1020D00040B101280CD0032803D10521F448FFF7B3
:1020E000DDFF7CBD00231A464FF4607130460CE0E2
:1020F00000231A464FF400613046CDE9004501F057
:10210000F2FB0023EB481A46C021CDE9004501F05F
:10211000EAFB7CBD1CB50522E74C032140B1012838
:102120000CD0032803D10521E448FFF7B7FF1CBDFD
:10213000CDE9001200231A46642105E0CDE9001222
:1021400000231A464FF4E041204601F0CCFB1CBDB1
:102150001CB50622032140B101280DD0032803D16C
:102160000621D748FFF79AFF1CBDCDE900120023D6
:102170001A463821D34806E0CDE9001200231A465A
:102180004FF4E051D04801F0AEFB1CBD7CB50525F5
:10219000CC4E032450B1012816D002281AD00328AF
:1021A00003D10521C948FFF779FF7CBD00231A46FA
:1021B0004FF480613046CDE9004501F094FB0023E7
:1021C0001A460C21C04809E000231A464FF460412A
:1021D000304603E00023BE481A460D21CDE90045F4
:1021E00001F081FB7CBD1CB50522032140B1012813
:1021F0000DD0032803D10521B648FFF74FFF1CBDC2
:10220000CDE9001200231A46E021B34805E0CDE9EC
:10221000001200231A463821AA4801F064FB1CBDB5
:102220002DE9FF4F85B00446DDE912BA99461646FE
:102230006846FEF784FBA748A84F0025844208D1D2
:10224000386840F4805038600698FFF7CCFFADF84E
:1022500004509E48DFF884828442A8F104080AD121
:10226000D8F8001041F48041C8F800100698FFF734
:102270008DFFADF80450924884420AD1D8F800107E
:1022800041F40041C8F800100698FFF761FFADF86F
:1022900004508A48844208D1386840F400503860BD
:1022A0000698FFF737FFADF804508148844208D103
:1022B000386840F4801038600698FFF705FFADF8E5
:1022C00004507848844208D1386840F400103860DF
:1022D0000698FFF7E4FEADF80450ADF80C90ADF8A9
:1022E00000504FF40070ADF80EA0ADF802B0ADF89C
:1022F0000A0046B10121012E08D00220022E08D08A
:10230000032E0BD00EE0ADF8065004E0ADF80650F9
:1023100006E0ADF80600ADF8085003E0ADF80600A1
:10232000ADF80810208820F0400020806946204643
:10233000FEF786FA208840F04000208009B0BDE812
:10234000F08F2DE9FC410446624800250F464FF40A
:102350008276844205D1CDE9006520230022FFF773
:102360005FFF5A48844206D1CDE900652023002250
:102370003946FFF755FF5248844206D1CDE9006542
:10238000202300223946FFF74BFF4C48844206D1F8
:10239000CDE90065202300223946FFF741FF44487C
:1023A000844206D1CDE90065202300223946FFF79B
:1023B00037FF3C48844206D1CDE900652023002246
:1023C0003946FFF72DFFBDE8FC812DE9FC410446AD
:1023D00040480025174688464FF48276844204D14F
:1023E000CDE900652023FFF71BFF3848844206D162
:1023F000CDE9006520233A464146FFF711FF3048FA
:10240000844206D1CDE9006520233A464146FFF7D4
:1024100007FF2A48844206D1CDE9006520233A46C9
:102420004146FFF7FDFE2248844206D1CDE9006512
:1024300020233A464146FFF7F3FE1A488442C2D1B0
:10244000CDE9006520233A464146FFF7E9FEBAE7A9
:102450002DE9FC470446DDE90A651E481F46904603
:102460008946844205D1CDE9006513463A46FFF717
:10247000D7FE1648844206D1CDE9006543463A4668
:102480004946FFF7CDFE0E48844206D1CDE90065EE
:1024900043463A464946FFF7C3FE0848844225D1E1
:1024A00043461DE000540140001802400014024061
:1024B00000500140001C0240001002400034014066
:1024C000003C004000040240000802400038004088
:1024D0000020024000300140000002404438024029
:1024E000CDE900653A464946FFF79AFE77488442AF
:1024F00006D1CDE9006543463A464946FFF790FECE
:102500007348844206D1CDE9006543463A464946C0
:10251000FFF786FEBDE8FC877FB50D00044620D09E
:102520006846FDF7E9FF6B48844208D06A48844258
:1025300005D06648844202D06548844201D103999F
:1025400000E0029900200124421C04FA02F3B1FBCE
:10255000F3F3AB4202D8C00004B070BDD0B208287B
:10256000F2D33820F8E702880388C2F3C02223F0B0
:10257000400303800129018808D021F40061018013
:10258000018841F0400101801046704741F400612C
:10259000F5E730B50488640614D50489A407FCD097
:1025A00004892406F9D400240AE00D5D858105899B
:1025B000AD07FCD005892D06F9D485891555641C15
:1025C0009C42F2D330BD10B503885B0613D5038956
:1025D0009B07FCD003891B06F9D4002309E0CC5CDF
:1025E00084810489A407FCD004892406F9D4848951
:1025F0005B1C9342F3D310BD30B50488640613D539
:102600000489A407FCD004892406F9D4002409E035
:1026100082810589AD07FCD005892D06F9D485890D
:102620000D55641C9C42F3D330BD30B5048864065C
:1026300016D50489A407FCD004892406F9D4002403
:102640000CE031F8145085810589AD07FCD005896F
:102650002D06F9D4858922F81450641C9C42F0D3CD
:1026600030BD10B503885B0614D503899B07FCD0E9
:1026700003891B06F9D400230AE031F81340848152
:102680000489A407FCD004892406F9D484895B1C3E
:102690009342F2D310BD30B50488640614D5048982
:1026A000A407FCD004892406F9D400240AE082811E
:1026B0000589AD07FCD005892D06F9D4858921F857
:1026C0001450641C9C42F2D330BD00000050014005
:1026D000005401400030014000340140028852069D
:1026E00001D40020704702899207FCD002891206AB
:1026F000F9D4818101898907FCD001890906F9D4BF
:102700008089C0B27047FF480021816041717047E5
:1027100030B5FC4A4FF41634002180B2A1F1405389
:102720009568891CA142E852F8D330BDF5484FF4B2
:102730001631816001214171704730B591B01E2082
:10274000009040F20D1001900420029040F24310DE
:10275000039002200490FF2005900020069007902F
:10276000089009904FF480600A9005200B9040F289
:10277000E3100D90C01E0E904FF4A0700F904FF01C
:102780005040E14C0C9069462046FEF75CFADF4968
:102790000C914FF4C0610A91DB4D07210B918035FC
:1027A00069462846FEF74FFA0120FEF748FA012154
:1027B0002046FEF7A9FA01212846FEF7A5FA0120D6
:1027C000FEF73DFA0120FEF712FA0120FEF703FAA8
:1027D000FF212046FEF738FB00212846FEF734FB98
:1027E0000120FEF72CFA11B030BDC94800B50168D0
:1027F0008FB041F080610160C5481438016841F430
:1028000000010160002002900390009001900C9064
:102810000D900E9004220721C020FDF725FE4FF4F5
:102820008030FDF7F2FE0120FDF727FE3D20FDF789
:10283000B5FD0028FAD009200490012005901D2044
:1028400006900320079040F20D10089040F24310CC
:10285000099040F217100A9040F247100B9068461A
:10286000FEF75AF90FB000BDAA4B10B54FF4005255
:102870001A80A94A042414800146A848FFF72EFFB5
:10288000A548801E048010BD01B5009801E0401EDF
:1028900000900028FBD108BD9E4B10B59B1E4FF445
:1028A00000521A809C4A0424148001469B48FFF77A
:1028B00015FF9948801E048010BD10B5CA20FFF78F
:1028C000D3FFC320FFF7E8FF0820FFF7E5FF502004
:1028D000FFF7E2FFCF20FFF7C7FF0020FFF7DCFF85
:1028E000C120FFF7D9FF3020FFF7D6FFED20FFF71B
:1028F000BBFF6420FFF7D0FF0320FFF7CDFF1220BE
:10290000FFF7CAFF8120FFF7C7FFE820FFF7ACFF02
:102910008520FFF7C1FF0020FFF7BEFF7820FFF7FB
:10292000BBFFCB20FFF7A0FF3920FFF7B5FF2C201E
:10293000FFF7B2FF0020FFF7AFFF3420FFF7ACFF37
:102940000220FFF7A9FFF720FFF78EFF2020FFF7F7
:10295000A3FFEA20FFF788FF0020FFF79DFF00207C
:10296000FFF79AFFB120FFF77FFF0020FFF794FFEA
:102970001B20FFF791FFB620FFF776FF0A20FFF735
:102980008BFFA220FFF788FFC020FFF76DFF10200C
:10299000FFF782FFC120FFF767FF1020FFF77CFFE2
:1029A000C520FFF761FF4520FFF776FF1520FFF7F1
:1029B00073FFC720FFF758FF9020FFF76DFF362009
:1029C000FFF752FFC820FFF767FFF220FFF74CFF29
:1029D0000020FFF761FFB020FFF746FFC220FFF79E
:1029E0005BFFB620FFF740FF0A20FFF755FFA72047
:1029F000FFF752FF2720FFF74FFF0420FFF74CFFA0
:102A00002A20FFF731FF0020FFF746FF0020FFF7E5
:102A100043FF0020FFF740FFEF20FFF73DFF2B2093
:102A2000FFF722FF0020FFF737FF0020FFF734FFFA
:102A30000120FFF731FF3F20FFF72EFFF620FFF7C1
:102A400013FF0120FFF728FF0020FFF725FF0620D6
:102A5000FFF722FF2C20FFF707FF314C2046FFF73E
:102A600013FF2620FFF700FF0120FFF715FFE020EE
:102A7000FFF7FAFE0F20FFF70FFF2920FFF70CFFEB
:102A80002420FFF709FF0C20FFF706FF0E20FFF7B9
:102A900003FF0920FFF700FF4E20FFF7FDFE78201F
:102AA000FFF7FAFE3C20FFF7F7FE0920FFF7F4FEE0
:102AB0001320FFF7F1FE0520FFF7EEFE1720FFF7CA
:102AC000EBFE1120FFF7E8FE0020FFF7E5FEE12016
:102AD000FFF7CAFE0020FFF7DFFE1620FFF7DCFE3F
:102AE0001B20FFF7D9FE0420FFF7D6FE1120FFF7C9
:102AF000D3FE0720FFF7D0FE3120FFF7CDFE3320B5
:102B000010E000007800002084680140005802D0E6
:102B1000443802401A0C02401A080240005001409A
:102B200040420F00FFF7B8FE4220FFF7B5FE052038
:102B3000FFF7B2FE0C20FFF7AFFE0A20FFF7ACFE56
:102B40002820FFF7A9FE2F20FFF7A6FE0F20FFF792
:102B5000A3FE1120FFF788FE2046FFF795FE2920EF
:102B6000FFF782FEBDE810402C207DE62DE9FC47F2
:102B700001240025DFF80C94CDE900542B462246B1
:102B80006103484600F09EFEFF4FCDE9005400234C
:102B900001220421384600F095FE0E25032400236F
:102BA0001A4641F65801F948CDE9004500F09BFE70
:102BB0000926DFF8DC83CDE9004600231A4603210D
:102BC000404600F090FE00231A464FF470614046E4
:102BD000CDE9004500F087FE00231A464FF49861C6
:102BE0003846CDE9004500F07EFE00231A464FF43A
:102BF00089614846CDE9004500F075FE00231A467C
:102C00003915E448CDE9004500F06DFECDE90045F9
:102C1000E14D00231A464FF40C61284600F063FE94
:102C2000CDE9004600231A464FF4A051284600F093
:102C30005AFEBDE8FC8710B5FFF798FFD249042083
:102C4000183108800021D548FFF77BFB00F0E4FC39
:102C5000FFF733FEFFF7C9FDFFF76FFDD0480021F6
:102C6000F02241800180CF4802804FF4A072428060
:102C70000122027181734171FF22816002734173ED
:102C8000FFF741FD4FF6FF742046FFF741FDFFF7C8
:102C90004DFD2046FFF73CFDBDE8104033E510B583
:102CA0002920FFF7E1FDBDE810400120FDF793BFAB
:102CB00010B52820FFF7D8FDBDE810400020FDF733
:102CC0008ABF70B5B74B1D8885421FD95C888C427E
:102CD0001CD99C7B93B2B34A4FF0504692685CB1CA
:102CE000012C0ED0022C12D0C1F1EF0189B2C0EB41
:102CF000001001EB001006E0C0F5963005FB110056
:102D000001E005FB010006EB4000135270BDA0F28C
:102D10003F10404280B2EAE7A249F0224FF4A0738C
:102D2000887330B1012804D00B804A8000200871DC
:102D300070470A804B800120F9E710B5994C9A48FA
:102D4000217BFEF781F89848617B8030FEF77CF8A4
:102D5000BDE810400120FDF772BF92490873ECE70F
:102D600090494873E9E78F4810B5407940B1FFF7C3
:102D7000CAFCFF20FFF7F1FF0020BDE81040EFE79D
:102D8000FFF7D4FC0020FFF7E8FFFF20F5E71CB5B4
:102D90000020009001904FF4A073F0224FF05041BA
:102DA000824801F06BFD1CBD1CB500200090019015
:102DB0004FF4A073F0227D494FF0504001F05EFDCA
:102DC0001CBD2DE9F047DFF8D8C1DDE908A8ACF853
:102DD00000009146ACF802101A781E461044714A61
:102DE0001288904206D970780844ACF8020000209E
:102DF000ACF80000002529E0A9F1200111FB0050EA
:102E00007268002432F810701CE007FA04F0000425
:102E100009D5BCF802005246284481B2BCF8000033
:102E2000204480B20BE0B8F1000F0ADBBCF80200CE
:102E30004246284481B2BCF80000204480B2FFF72B
:102E400040FF641C3078A042DFD86D1C7078A84227
:102E5000D2D83078BCF800100844ACF80000BDE8C7
:102E6000F0872DE9FC434E4DDDE9099828801F4687
:102E70001446064669800BE00A2A0ED00D2A15D0AA
:102E8000CDE900983B4669882888641CFFF799FFC4
:102E90002278002AF0D1BDE8FC8368887978401C4C
:102EA0000844688060780D2802D02E80641CEFE70B
:102EB00000202880641CF9E730B54D7800241D807F
:102EC00002E00B7823449CB210F8013B002BF8D1B0
:102ED000148030BD2DE9F84F9446324A0C46054621
:102EE00011881F46481EA94200D885B2614501D805
:102EF0001FFA80FC5188481EA14200D884B2B94212
:102F000000D887B2654502D2ACEB050001E0A5EB25
:102F10000C000FFA80F9BC4201D2381B00E0E01B24
:102F20000FFA80F84FF0FF30654501D2012100E033
:102F300001460091BC4200D2012083464846C1456B
:102F400001DCC8F1000000EBD070401006B2C9F1FE
:102F5000000A214628460A9AFFF7B3FE654501D1CB
:102F6000BC4229D03046564505DDA0EB08010EB223
:102F7000009929448DB24045EBDA06EB090006B210
:102F800016E00000000C0240000802400000024071
:102F900000040240001402400018024000500140AA
:102FA000220000207800002084680140005802D0F0
:102FB00004EB0B0084B2CCE7BDE8F88F2DE9F841B3
:102FC0001D46079C16460F4680460B460094FFF7A9
:102FD00081FF42462B46394610460094FFF77AFFA0
:102FE00032462B46394610460094FFF773FF2B46B6
:102FF0003246194640460094FFF76CFFBDE8F88161
:103000002DE9F04F0746C2F101000FFA80FCC2EB38
:10301000C230400098460E464FF0010A0FFA80F980
:1030200000251446DDF824B05AE0BCF1000F09DB9E
:1030300009F102000FFA80F9641E0CEB090024B2BA
:103040000FFA80FC0AF102000FFA80FA6D1C0CEBFB
:103050000A000FFA80FC2DB25FEAC8700DD0701B19
:1030600081B2381B80B25A46FFF72BFE301B81B26B
:10307000781B80B25A46FFF724FE5FEA88700DD5B0
:10308000301B81B2781980B25A46FFF71AFE701BC6
:1030900081B2381980B25A46FFF713FE5FEA4870D2
:1030A0000DD5301981B2781980B25A46FFF709FE62
:1030B000701981B2381980B25A46FFF702FE5FEAF2
:1030C00008700DD5301981B2781B80B25A46FFF7CF
:1030D000F8FD701981B2381B80B25A46FFF7F1FD36
:1030E000A542A2DBBDE8F08F2DE9FC4F8146DDE96A
:1030F0000B451E4690460F464A4570D0BE426ED0E4
:103100002CB94246394648460095FFF757FF4146DD
:10311000C14501D9C8468946B74202D930463E4624
:103120000746A8EB090000EBD070B4EB600F01DD9F
:10313000C0F34F04F01B00EBD070B4EB600F01DD67
:10314000C0F34F04A8EB0400CDE9005082B209EBB4
:10315000040B3B461FFA8BF01946FFF7BBFEA6EBAC
:10316000040A27444A461FFA8AF3B9B2104600956A
:10317000FFF7B0FE42461FFA8AF3B9B21046009537
:10318000FFF7A8FE0198334682B200951FFA8BF034
:103190001946FFF79FFE3EB20FFA8BF022B280462F
:1031A0000123144631460095FFF72AFF0198314666
:1031B00007B20095022322463846FFF721FF0FFA97
:1031C0008AF638460423224631460095FFF718FF59
:1031D00031464046082322460095FFF711FFBDE81F
:1031E000FC8F2DE9FC4F0446C2F101000FFA80F973
:1031F0000120DDF82C800190C2EBC23040009A46DD
:103200000F460FFA80FB0026154671E0B9F1000F5A
:1032100009DB0BF102000FFA80FB6D1E09EB0B00BE
:103220002DB20FFA80F9761C019836B2801C00B2DC
:10323000019048440FFA80F95FEACA7013D0781BF6
:10324000A11B8AB283B281B2A0B2CDF80080FFF791
:1032500041FEB81B611B8AB283B281B2A0B2CDF825
:103260000080FFF737FE5FEA8A7013D5781B83B2C0
:1032700081B2A019A2B280B2CDF80080FFF72AFE79
:10328000B81B83B281B26019A2B280B2CDF80080BF
:10329000FFF720FE5FEA4A7013D57819A1198AB2A8
:1032A00083B281B2A0B2CDF80080FFF713FEB81947
:1032B00083B281B26019A2B280B2CDF80080FFF76C
:1032C00009FE5FEA0A7013D5781983B281B2A01B98
:1032D000A2B280B2CDF80080FFF7FCFDB819611BE7
:1032E0008AB283B281B2A0B2CDF80080FFF7F2FDBE
:1032F000AE428BDB73E72DE9F8411D4617460C46BD
:103300008046079E08E023463A4619464046009606
:10331000FFF7E0FD641CA4B2AC42F4D96EE62DE9DF
:10332000F84F8146DDE90A451E4690460F464A455C
:1033300066D0BE4264D02CB9424639464846009514
:10334000FFF7D9FF4146C14501D9C8468946B74272
:1033500002D930463E460746A8EB090000EBD07084
:10336000B4EB600F01DDC0F34F04F01B00EBD07035
:10337000B4EB600F01DDC0F34F04A8EB040B09EBC5
:10338000040A1FFA8BF21FFA8AF033463946009579
:10339000FFF7B1FF361B2744B3B21FFA8AF2B9B266
:1033A00048460095FFF7A7FFB3B2B9B21FFA8BF0FA
:1033B00042460095FFF79FFF39B20FFA8AF022B21A
:1033C0000F468146012314460095FFF70AFF0FFAC6
:1033D0008BF839460223224640460095FFF701FF4D
:1033E000761E36B240460423224631460095FFF74A
:1033F000F8FE31464846082322460095FFF7F1FEC5
:10340000DAE52DE9FF4F0746C2F1010014460FFA35
:1034100080FCC2EBC43040000FFA80F881B00E4649
:10342000081981B24FF001090025B8B2049AFFF7DC
:1034300048FC301B81B2B8B2049AFFF742FC38193D
:10344000B1B280B2049AFFF73CFC381BB1B280B233
:1034500059E0BCF1000F09DB08F102000FFA80F817
:10346000641E0CEB080024B20FFA80FC09F1020084
:103470000FFA80F96D1C0CEB09002DB20FFA80FCDD
:10348000781906EB040A00901FFA8AF180B2049AB8
:10349000FFF717FCA7EB050B1FFA8AF11FFA8BF059
:1034A000049AFFF70EFC0098A6EB040A1FFA8AF1B3
:1034B00080B2049AFFF705FC1FFA8AF11FFA8BF01D
:1034C000049AFFF7FEFB381906EB050A00901FFA75
:1034D0008AF180B2049AFFF7F4FBA7EB040B1FFA02
:1034E0008AF11FFA8BF0049AFFF7EBFB0098A6EB2A
:1034F000050A1FFA8AF180B2049AFFF7E2FB1FFA6D
:103500008AF11FFA8BF0049AFFF7DBFBA542A0DBE0
:1035100005B0E7E52DE9FE4F0746C2F1010014466C
:103520000FFA80F8C2EBC43040000FFA80FA0E4662
:10353000081981B299464FF0010B0025B8B21A461E
:10354000FFF7BFFB301B81B2B8B24A46FFF7B9FBA9
:1035500038190190B1B280B24A46FFF7B2FBA7EB2F
:10356000040CB1B21FFA8CF04A46FFF7AAFB01988F
:10357000B3B282B2CDF80090B1B21FFA8CF042E043
:10358000B8F1000F09DB0AF102000FFA80FA641E9D
:1035900008EB0A0024B20FFA80F80BF102000FFAD0
:1035A00080FB6D1C08EB0B002DB20FFA80F8781928
:1035B00082B20290781BCDE9009031198BB289B2AA
:1035C00080B2FFF787FC0198311B82B202988BB260
:1035D000CDF8009089B280B2FFF77CFC381B82B234
:1035E00002903819CDE9009071198BB289B280B27E
:1035F000FFF770FC0298711B82B201988BB2CDF874
:10360000009089B280B2FFF765FCA542B8DBBDE847
:10361000FE8F0000002070472DE9F04F97B0784CE6
:103620004FF6FF7ACDF810A0207818B1012017B01E
:10363000BDE8F08F00F0A8F87248016841F0010180
:1036400001604FF002080722CDE910824FF0040B11
:10365000CDF848B0CDE91328CDF854801020CDF82E
:103660005880CDE907B040204FF0010909900025AE
:10367000CDE905954FF4C070CDE90A054FF400601F
:10368000CDE90C0580000E9010A80F904E4605A8BD
:10369000FDF76EFECDE902650827CDE900675646C5
:1036A000CDF810A001E0401E049020210120FDF77C
:1036B0008CFF10B104980028F5D16846FDF712FF81
:1036C00051480490411E049101D30846FAE7CDE920
:1036D0000087CDF80890CDE90356C84601E0401EAA
:1036E000049020210120FDF770FF10B104980028FC
:1036F000F5D16846FDF7F6FE0320CDE900070297F5
:10370000CDE9035601E0401E049020210120FDF781
:103710005CFF10B104980028F5D16846FDF7E2FE81
:10372000CDE900B740F23120CDF80880CDE903069D
:10373000474601E0401E049020210120FDF745FF8F
:1037400010B104980028F5D16846FDF7CBFE4FF480
:103750002A70FDF7E5FE049601E0401E049020214A
:103760000120FDF732FF10B104980028F5D14FF089
:103770005040452100F8501F0078452802D02570A0
:10378000002054E7277051E77CB5FFF743FF00287E
:1037900035D10C25032400231A4660211B48CDE9AE
:1037A000004500F0A0F800231A4601211848CDE991
:1037B000004500F098F800231A464CF203711548B2
:1037C000CDE9004500F08FF800231A464FF68371CB
:1037D0001148CDE9004500F086F800231A464FF65F
:1037E0003F010E48CDE9004500F07DF800231A4660
:1037F00048F233110A48CDE9004500F074F87CBD69
:103800003800002038380240F0FE0F01000402406A
:1038100000080240000C0240001002400014024068
:1038200000180240A3490844C0F38F2070472DE9D7
:10383000F04F9A46DDE909B889460346FFF7F2FFE3
:10384000C5B200204FF0030E0121814011EA090F9B
:1038500028D0994E36F815400C4326F81540DF68FD
:1038600044000EFA04F6B7430BFA04FC47EA0C07CF
:10387000DF601F6802FA04FCB74347EA0C071F60C9
:10388000012A01D0022A0DD15F6889B28F430AFA5A
:1038900000F189B20F435F60996808FA04F4B143FC
:1038A00021439960401CC0B21028CDD3BDE8F08FF1
:1038B00000B5FFF7B7FF012181408048026811433E
:1038C000016000BDFCB51646DDE907C50C000746E2
:1038D00008D0FFF7EDFFCDE900C532462146384656
:1038E000FFF7A5FFFCBD2DE9FC4F9946DDE90BB7BD
:1038F00092460D00064622D0FFF7DAFF0022012192
:103900004FF00F0C01FA02F028420DD0D00806EB60
:103910008003186A5407E40E0CFA04F820EA080041
:1039200007FA04F420431862521C102AEAD3CDE9A6
:10393000009B5346022229463046FFF778FFBDE838
:10394000FC8FF0B50E460546FFF76CFF00225A4982
:10395000C4B24FF0010C03270CFA02F333420CD02F
:1039600028684FEA420E07FA0EFE40EA0E00286071
:1039700031F81400984321F81400521CD2B2102AD6
:10398000EAD3F0BDF0B500220125032605FA02F3C3
:103990000B4205D00468570006FA07F39C43046005
:1039A000521CD2B2102AF1D3F0BDF0B5002201278B
:1039B000032607FA02F33C460B4208D00568530081
:1039C00006FA03FC25EA0C059C4025430560521CC1
:1039D000D2B2102AEDD3F0BDF0B5002201250326A6
:1039E00005FA02F30B4205D00468570006FA07F304
:1039F0001C430460521CD2B2102AF1D3F0BDF0B5C2
:103A0000002201260324022706FA02F30B4209D002
:103A10000568530004FA03FC25EA0C0507FA03F3D2
:103A20001D430560521CD2B2102AEDD3F0BDF0B593
:103A300000230127032507FA03F40C4209D0C668C6
:103A40005C0005FA04FC26EA0C0602FA04F426439C
:103A5000C6605B1CDBB2102BEDD3F0BD41F48032AD
:103A6000C261C161C261C169C0697047002102E0E1
:103A7000491C89B240080128FAD80846704700B5A9
:103A8000FFF7D0FE012181400C4802688A430260A2
:103A900000BD00B5FFF7C6FE074931F8100000BDB4
:103AA00000B5FFF7BFFE044931F81000C04380B2F3
:103AB00000BD00000000FEBF88000020303802403A
:103AC00070B5FE4C2068C007FCD10225A560FC48FB
:103AD000016841F400010160016821F40001016006
:103AE000F848FDF7FFFD206840F0010020602068E5
:103AF000C007FCD1A56070BD30B5F24C2834A56874
:103B000024692C440444EF4884611C3080E80E0092
:103B100030BD2DE9F041EB4F044628371546387E7D
:103B20000E4601286DD1B888A0426ADDF888B042FF
:103B300067DD002D65D0002C02DA101985B2002453
:103B4000002E00DA0026B9886019884202DBB888A6
:103B5000001B85B2DB48022141604FF44031016017
:103B60000021416103F01F018160C3F34511C16071
:103B7000C3F3C4210161787E01280AD1B87E398857
:103B800006FB0141484339882B46491B0122FFF7B8
:103B9000B3FF787E80B9398878883A88801B401EC8
:103BA00000FB0210001BB97E401B484339882B469E
:103BB000491B0122FFF7A0FF787E03280DD138882A
:103BC0003988801B401E01FB0400B97E48433988B8
:103BD00001232A46491EFFF78FFF787E02280DD168
:103BE00038887988491B091B00FB0160B97E48436E
:103BF000398801232A46491EFFF77EFFBDE8F041C0
:103C00005EE7BDE8F081AF4810B528304FF0504175
:103C1000816000230361F02202804FF4A071418093
:103C20004FF496344461C2808180437602218176CC
:103C3000817E6143C160A24920310A6842F40002DA
:103C40000A600121017610BD9E492831CA68401ED4
:103C500042430A61704770B59A4B28335C7E92B23A
:103C6000012C14D05C7EE4B15C7E032C29D05C7EF8
:103C7000022C0BD19C681D692C445D88281A1D8874
:103C8000401E00FB0510997E4843225270BD9C687F
:103C90001D6925449C7E1B8801FB030044432A5375
:103CA00070BD9C681D6925441C88241A5888401AD8
:103CB0001988401E641E00FB0140997E48432A5229
:103CC00070BD9C681D692C441D881E8800FB065031
:103CD000401A997E401ED7E77A4A30B52832537E83
:103CE000012B09D0537E8BB1537E032B1BD0537E07
:103CF000022B23D0002030BD936814691C44937EAE
:103D0000128801FB02004343E05A30BD93681469F6
:103D100023441488201A5488611A1488401E491EAE
:103D200001FB040013E09368146923441488158888
:103D300000FB0540401A917E401E09E0936814691B
:103D400023445488201A1488401E00FB0410917EDE
:103D50004843185A30BD03280AD85A4928314876B2
:103D60004FF4A072F02320B1012802D0CB808A80CA
:103D70007047CA808B807047524902224A604FF4D4
:103D800040320A600F224A6100F01F028A60C0F3CD
:103D90004512C0F3C420C1E9032001F12800826864
:103DA00003691A448A610022CA6142880A62008853
:103DB000486285E62DE9F041DFF808C10C460CF1B8
:103DC000280C05469CF8180006991E46174601283F
:103DD0007AD1BCF80400A84276D9BCF80600A0420B
:103DE00072D9BCF80620A019904203D3BCF8060093
:103DF000001B86B2BCF80420E819904203D3BCF83B
:103E00000400401B87B22F48022242604FF4403228
:103E100002600F22426101F01F028260C1F345126D
:103E2000C1F3C421C0E903219CF8190001280DD178
:103E30009CF81A00BCF8001004FB01514843BCF880
:103E400000103B46C91B3246FFF756FE9CF819008E
:103E5000A8B9BCF80000BCF80210BCF80020891B0F
:103E6000091B01FB0200401B9CF81A10C01B4843B1
:103E7000BCF800103B46C91B3246FFF73DFE9CF8DC
:103E80001900032811D1BCF80000BCF80010001B79
:103E9000801B01FB05009CF81A104843BCF8001079
:103EA0003346891B3A46FFF727FE9CF81900022883
:103EB00019D1BCF80000BCF8021006E000B00240C6
:103EC00010380240A000002010E0C91B491B00FB75
:103ED00001409CF81A104843BCF800103346891B77
:103EE0003A46FFF709FEBDE8F041E9E589E62DE92C
:103EF000F04115460C460646FE4F387E01286CD12F
:103F0000B888B04269DDF888A04266DD002D64D033
:103F1000002E00DA0026002C00DA0024F98860194F
:103F2000884202DBF888001B85B2F248022128385B
:103F300041604FF4403101600F21416103F01F01E6
:103F40008160C3F34511C160C3F3C4210161787E70
:103F500001280AD1B87E398804FB016148433988B9
:103F600001232A46491EFFF7C7FD787E80B93888AD
:103F700079883A88491B091B01FB0200B97E801B26
:103F8000401E4843398801232A46491EFFF7B4FDE5
:103F9000787E03280DD138883988001B401B01FB2F
:103FA0000600B97E484339882B46491B0122FFF79A
:103FB000A3FD787E02280DD139887888801B401EA9
:103FC00001FB0040B97E484339882B46491B01223A
:103FD000FFF792FDBDE8F04172E512E62DE9F047EA
:103FE00099460E460746DDF820A0904609B200B279
:103FF00053464A460D460446FFF779FF07EB080093
:10400000401E00B253464A462946FFF770FF53460A
:10401000424629462046FFF77CFD06EB090001B227
:10402000534642462046BDE8F04772E52DE9F04F81
:104030000746C2F101000FFA80FCC2EBC23040001B
:1040400098460E464FF0010A0FFA80F900251446F3
:10405000DDF824B05AE0BCF1000F09DB09F10200E1
:104060000FFA80F9641E0CEB090024B20FFA80FCF1
:104070000AF102000FFA80FA6D1C0CEB0A000FFA2D
:1040800080FC2DB25FEAC8700DD0701B81B2381B66
:1040900080B25A46FFF7DFFD301B81B2781B80B239
:1040A0005A46FFF7D8FD5FEA88700DD5301B81B204
:1040B000781980B25A46FFF7CEFD701B81B23819CD
:1040C00080B25A46FFF7C7FD5FEA48700DD5301938
:1040D00081B2781980B25A46FFF7BDFD701981B2DE
:1040E000381980B25A46FFF7B6FD5FEA08700DD561
:1040F000301981B2781B80B25A46FFF7ACFD7019B7
:1041000081B2381B80B25A46FFF7A5FDA542A2DB5B
:10411000BDE8F08F2DE9FC5F1E46DDE90C45170078
:104120008846824670D0002E6ED04FF0FF30B4EB40
:10413000570F02D900EB57018CB2B4EB560F02D9DE
:1041400000EB560084B2B4EB570F5FD8B4EB560FB8
:104150005CD8002C5AD0604207EB400B00900AEB71
:10416000040000B21FFA8BF281462B460FFA88F149
:10417000FFF7CFFC08EB06000190401E01B21FFACA
:104180008BF248462B46FFF7C4FC00982B4606EB03
:10419000400B08EB040006B21FFA8BF231460FFA0F
:1041A0008AF0FFF7A4FE0AEB0708A8F101001FFA46
:1041B0008BF2314600B22B46FFF799FE22B2314610
:1041C0004846012317460095FFF730FFA8EB04008F
:1041D000401E0FFA80F8314602233A4640460095C9
:1041E000FFF724FF01980095001B401E04B24046D3
:1041F00004233A462146FFF719FF21464846082383
:104200003A460095FFF712FFBDE8FC9F4146504635
:104210000095FFF7E3FEF7E72DE9FE4F0027141A9C
:10422000002C00DC841A0FFA84F85C1A002C00DCE5
:10423000CC1A0FFA84FC06460D464FF0FF34B2420A
:1042400003DB01200190009001E001940094AB4257
:1042500003DB4FF0010BDA4601E0A346DA46E04506
:104260004FF0000008DB8246019008EBD870C14691
:104270004410CDF808C026E00090E1460CEBDC705D
:10428000CDF808804FF0000B4410C8461BE0012217
:1042900029B230B20C9BFFF73CFC0298204404B2D8
:1042A0004C4508DBA4EB090004B20198304406B287
:1042B00005EB0B0005B200987F1C304406B205EBFD
:1042C0000A0005B23FB24745E1DDBDE8FE8F2DE9AA
:1042D000FC5F0646C2F101000FFA80F9012001904F
:1042E000C2EBC23040009A460F46DDF830800FFA2C
:1042F00080FB01E0C80000200025144671E0B9F100
:10430000000F09DB0BF102000FFA80FB641E09EBC2
:104310000B0024B20FFA80F96D1C01982DB2801C9D
:1043200000B2019048440FFA80F95FEACA7013D0D6
:10433000381B01B2701B02B20B463046CDF800802C
:10434000FFF76AFF781B01B2301B02B20B46304602
:10435000CDF80080FFF760FF5FEA8A7013D5381B45
:1043600001B2701900B20B463246CDF80080FFF75B
:1043700053FF781B01B2301900B20B463246CDF81C
:104380000080FFF749FF5FEA4A7013D5381901B280
:10439000701902B20B463046CDF80080FFF73CFFA3
:1043A000781901B2301900B20B463246CDF80080C0
:1043B000FFF732FF5FEA0A7013D5381901B2701B9C
:1043C00000B20B463246CDF80080FFF725FF781982
:1043D00001B2301B02B20B463046CDF80080FFF729
:1043E0001BFFA5428BDB0FE72DE9FC5F1E46DDE9D5
:1043F0000C4517008A46814669D0002E67D04FF0E1
:10440000FF30B4EB570F02D900EB57018CB2B4EB7D
:10441000560F02D900EB560084B2B4EB570F57D8B1
:10442000B4EB560F54D8E4B3C4F1000807EB4800CE
:1044300082B209EB0400CDE9005080B25146FFF78B
:10444000B9FC06EB480B0AEB04081FFA8BF31FFAC2
:1044500088F1224648460095FFF7ACFC1FFA8BF323
:1044600009EB0700A0EB040B1FFA88F11FFA8BF091
:1044700022460095FFF79EFC01980FFA88F100B2E2
:1044800022B288460095814601231746FFF71FFF99
:10449000ABF10100414600B2804602233A46009546
:1044A00000E015E0FFF713FF0AEB0600001B401EBB
:1044B00004B2404604233A4621460095FFF707FF21
:1044C0002146484608233A460095FFF700FF9BE641
:1044D000514648460095FFF76DFC95E6F8B516463F
:1044E0000D4604460CE034F8020B34F8021B00962B
:1044F000B4F90230B4F9002009B200B2FFF78CFE23
:104500006D1E2D042D0CEED1F8BD2DE9FF4F074691
:10451000C2F1010091460FFA80F8C2EBC9304000A9
:104520000FFA80FA83B00E4601EB090001B24FF09A
:10453000010B14B238B200255A46069B0090FFF7D3
:10454000D6FCA6EB090001B20122069B0098FFF7FA
:10455000CEFC07EB090031B200B20122069B0091AC
:10456000FFF7C5FCA7EB090000B20122069B0099EA
:1045700054E0B8F1000F09DB0AF102000FFA80FAEB
:10458000641E08EB0A0024B20FFA80F80BF1020057
:104590000FFA80FB08EB0B000FFA80F830196D1C46
:1045A00001B22DB2781900B2019089460122069B12
:1045B000FFF79DFC781B494600B281460122069B0D
:1045C000FFF795FC301B01B200910122069B019878
:1045D000FFF78DFC48460122069B0099FFF787FCF8
:1045E000701901B2381900B2019089460122069B68
:1045F000FFF77DFC381B00B2494600900122069B64
:10460000FFF775FC701B01B289460122069B0198D9
:10461000FFF76DFC49460122069B0098FFF767FCF7
:10462000A542A6DB07B073E52DE9FF4F8146C2F135
:104630000100904607B2C2EBC83040000FFA80FA82
:1046400083B00E4601EB080001B24FF0010B14B22B
:104650000FFA89F000255A46069B0090FFF747FCA9
:10466000A6EB080001B20122069B0098FFF73FFC71
:1046700009EB080031B200B20122069B0091FFF75E
:1046800036FCA9EB080000B201900122069B0099BC
:10469000FFF72DFC4FF6FF7101EA4802DDE900103B
:1046A000069B3BE0002F08DB0AF102000FFA80FABC
:1046B000641E07EB0A0024B207B20BF102000FFAE6
:1046C00080FB07EB0B006D1C07B22DB24FF6FF709D
:1046D00000EA4502301901B2A9EB050000B280469C
:1046E0000092069BFFF715FA301B01B24046069B6D
:1046F000009AFFF70EFA4FF6FF7000EA44027019B5
:1047000001B2A9EB040000B280460092069BFFF7BD
:1047100000FA701B01B24046069B009AFFF7F9F9B8
:10472000A542BFDB7EE72DE9F84F1BB2DDE90B5454
:10473000DDF828B012B209B200B29A469146884616
:1047400007460094FFF768FD2BB20FFA8BF21E4666
:104750001546514648460094FFF75EFD43463A46EB
:10476000314628460094FFF757FDBDE8F88F2DE944
:10477000FE4F84460027A2EB0C000C46002801DC0B
:10478000ACEB020001B2181B002800DCE01A00B2FA
:104790000FFA8CF625B24FF0FF38624503D30122A1
:1047A0009346019202E0C346CDF80480A34203D3AE
:1047B0004FF0010AD14601E0C246D14681424FF096
:1047C000000207DB9146019201EBD172541088463A
:1047D000029028E0934600EBD0724FF0000A54108C
:1047E000804602911FE00E9800900D98294603B272
:1047F0000C9802B23046FFF70FFD0298204404B235
:10480000444508DBA4EB080004B20198304406B22A
:1048100005EB0A0005B206EB0B0006B205EB09003A
:104820007F1C05B23FB24745DDDD4EE5F0B5244CB7
:10483000DDE905762568ED07FCD14FF0020CC4F8E0
:1048400008C0204DD5F800E04EF4000EC5F800E099
:10485000D5F800E02EF4000EC5F800E06D152560D7
:10486000E060E16327612664C4F81CC062F31F4363
:104870006364206840F001002060F0BD3CB5DDE9D4
:104880000545CDE90045FFF7D1FF0D480168C9078F
:10489000FCD1022181603CBD0B4902880A8042881C
:1048A0004A8082688A60C268CA6002798A760A8809
:1048B0004B885A434A61007C4876487EFFF74BBAE2
:1048C00000B0024010380240C80000200F480168C4
:1048D00041F0400101600E48016841F004010160AF
:1048E00070470B48016821F0040101600748016826
:1048F00021F04001016070470548001D0168C907AB
:10490000FCD003480830006870470000343802408B
:104910000008065002468221C34800F0D2BA1CB5F6
:10492000FDF70AFAC04CC14A0021204600F083F985
:10493000022303228221204600F03BFB052000F0E9
:104940005CF9002303228221204600F032FB022082
:1049500000F053F90221009101AB00228221204690
:1049600000F0E4FABDF8040041BAA1F50062113A82
:1049700001D003201CBD022303228221204600F027
:1049800018FB052000F039F900230322822120467C
:1049900000F00FFB022000F030F90420FFF7BAFF0F
:1049A00020F0010304228221204600F002FB0420B3
:1049B000FFF7B0FF20F0020304228221204600F01E
:1049C000F8FA492320228221204600F0F2FA022040
:1049D00000F013F9012321228221204600F0E9FA98
:1049E0001720FFF797FF40F01E0317228221204671
:1049F00000F0DFFA9A2341228221204600F0D9FA02
:104A000001234A228221204600F0D3FA01234B22BF
:104A10008221204600F0CDFA00234B22822120463D
:104A200000F0C7FA012356228221204600F0C1FA85
:104A3000012358228221204600F0BBFA03234022A2
:104A40008221204600F0B5FAFF230B228221204666
:104A500000F0AFFA022000F0D0F802201CBD70B5C3
:104A600004464F20FFF756FF60F30F255020FFF755
:104A700051FF60F30705A5F5B47528B20B2190FB33
:104A8000F1F001B2002901DC002104E0B1F5A07FC2
:104A900001DB40F23F11A14201DD081B00E0601A7A
:104AA00000B2042801DD88B270BD204670BD70B52B
:104AB00004464D20FFF72EFF60F30F254E20FFF731
:104AC00029FF60F3070529B240F6B830814202DCC5
:104AD000A1F63C7101E0A1F6D861484200B20F2175
:104AE00090FBF1F001B2EF2901DDEF2102E0002996
:104AF00000DA0021A14201DD081B00E0601A00B2CB
:104B0000042801DD88B270BD204670BD70B5044632
:104B1000007960714020FFF7FDFE434E00064FF024
:104B200001050DD4257101234B228221304600F06E
:104B300040FA00234B228221304600F03AFA5AE034
:104B4000A07930B1012811D0022818D0032821D033
:104B50002AE02088FFF7ABFFC0F1EF0020806088DB
:104B6000FFF77DFFA0F23F10404206E02088FFF7EC
:104B70009EFF20806088FFF772FF608014E06088ED
:104B8000FFF795FF60802088FFF769FFA0F23F10D4
:104B9000404208E02088FFF78AFFC0F1EF00608004
:104BA0002088FFF75CFF208001234B2282213046C2
:104BB00000F0FFF900234B228221304600F0F9F982
:104BC000A07900214FF49F7260B101280AD020889B
:104BD000401E90420ED2608860B1EF280AD2217147
:104BE000002070BD2088401EEE2803D2608808B1E6
:104BF0009042F4D92571012070BD0D4908B50A68AD
:104C00000092EFF3058242B14FF0E021002809D075
:104C10000A69D203FAD5401EF8E70A68009BD21A47
:104C20008242FAD308BD0000005C0040A08601006B
:104C30001400002070472DE9F04F15460446DFF8B8
:104C4000E8B30026DFF8E4C304220123F848F94F53
:104C500087B04FF480494BF6FF7A5C452DD1DCF8E4
:104C6000008048F40018CCF8008031B101290AD046
:104C7000022911D0032916D019E0CDE90032012311
:104C80001A46C02105E0CDE9003201231A464FF44F
:104C90004071FEF728FE0AE0CDE9003201231A46F2
:104CA0004FF41071F5E704215846FFF7C3FF386849
:104CB000A84200D93D60386866E0DFF87CB3DFF8D1
:104CC0007CE35C452ED1DCF8008048F48008CCF809
:104CD000008031B101290BD0022912D0032917D04D
:104CE0001AE0CDE9003201231A464FF4406105E095
:104CF000CDE9003201231A460321D148FEF7F3FD26
:104D00000AE0CDE9003201231A4630217046F5E76A
:104D100004215846FFF78EFF7868A84200D97D60CD
:104D2000786831E0C748844239D1DCF8008048F423
:104D30000008CCF8008021B1012913D003291BD031
:104D40001DE09B4690460123CDE900B81A461902A2
:104D5000BD48FEF7C8FD0123CDE900B81A46590247
:104D6000BA4806E0CDE9003201231A464FF4C0717B
:104D70007046FEF7B8FD02E00421FFF75BFFB8685C
:104D8000A84200D9BD60B868ADF80C60ADF81060FD
:104D90000290ADF81490ADF81260ADF80EA0208826
:104DA00020F00100208002A92046FCF705FE2088A3
:104DB00040F00100208007B0BDE8F08F70B50446D8
:104DC000008820F480602080208840F400702080DB
:104DD000984D44F620602D1F9D4E286003E02A6800
:104DE000521E2A6008D031462046FCF72FFF0028CB
:104DF000F5D0208AC0B270BD012070BD70B50446E8
:104E0000008840F4807020808A4D44F620662D1F73
:104E10002E6003E02868401E28602AD0A08AC007C0
:104E2000F8D01BB1208840F4806020805AB921F06E
:104E3000010020822E6003E02868401E286018D000
:104E4000A08A8007F8D5012A10D141F00100208204
:104E50002E607F4E3E3E03E02868401E286008D04A
:104E600031462046FCF7F2FE0028F5D0208B0020CA
:104E700070BD012070BD6F4A44F62061121F1160A1
:104E800003E01168491E11600BD0818A0906F8D52C
:104E9000818A4907F5D5018841F40071018000201D
:104EA000704701207047634B44F620621B1F1A6055
:104EB000828A120603D41A680AB1521EF7E70182E9
:104EC000704770B5164600230C4605461A46FFF794
:104ED00095FF31462846FFF7E6FF2846FFF7CBFF50
:104EE0000023012221462846FFF788FF2846BDE817
:104EF000704063E770B50546008840F48060288004
:104F00004C4C44F62060241F514E206003E0226880
:104F1000521E226008D031462846FCF797FE002832
:104F2000F5D0288AC0B270BD012070BD2DE9F041D6
:104F30001C4617460E46804601230022069DFFF7B9
:104F40005DFF39464046FFF7AEFF01231A46314662
:104F50004046FFF753FF05E0404645B1FFF7CAFF63
:104F600004F8010B6D1EADB2F6D2BDE8F081FFF77B
:104F700025FFF5E710B5012304461A46FFF73EFF6B
:104F80002046BDE8104019E770B51C4615460123C0
:104F900006461A46FFF732FF04E0304634B1FFF709
:104FA000A9FF2870641EA4B2F7D270BDFFF706FFF8
:104FB000F7E770B51D461646002304461A46FFF76C
:104FC0001DFF31462046FFF76EFF29462046FFF7BA
:104FD0006AFF2046BDE870404DE72DE9F0411D46CF
:104FE0001746002306461A46069CFFF707FF394678
:104FF00001E015F8011B3046FFF755FF641EA4B20F
:10500000F7D23046BDE8F04135E770B515460023CC
:1050100004461A46FFF7F2FE29462046FFF743FFF3
:105020002046BDE8704026E700540040403802406A
:10503000000402404000002000580040001C0240D4
:1050400000140240005C00400000024000080240E2
:105050004000030070B51C461546002306461A465C
:10506000FFF7CCFE04E015F8011B3046FFF71BFFED
:10507000641EA4B2F7D23046BDE87040FBE670B5BE
:105080000024054601232246FFF7B8FE00B901249B
:105090002846FFF7F0FE204670BD0000784A10B5A4
:1050A0001823904202D2774A774C03E0744A744C3A
:1050B000083A64422044B0FBF3F0042801D3001FF7
:1050C000121D724B01F03D01185C8140116010BD52
:1050D0003D21E3E76A491822884203D269496A4BB5
:1050E000083903E06649664B10395B421844B0FB4F
:1050F000F2F0042801D3001F091D0968634A105CFF
:10510000C14001F03D00704738B504463D21FFF72E
:10511000C5FF5E4A5A4B1820121D01219C4207D23E
:10512000594B8DF801102344B3FBF0F0125C08E0FA
:10513000534B8DF801105B422344B3FBF0F0024463
:10514000127A8DF800208DF803108DF80200684661
:10515000FBF7A9F8206840F01E002060606940F06D
:105160008000606138BD10B504463D21FFF796FF11
:105170004648434A1821001D944201D2424A01E0A8
:105180003F4A52422244B2FBF1F14056012100F065
:105190001F0291404009800000F1E020C0F880111A
:1051A000206820F01E002060606900F080006061CF
:1051B00010BD7047704770477047704770B505461F
:1051C0003D21FFF787FF84B23D212846FFF766FFA8
:1051D000A00605D52868C00602D52846FFF7E9FFD6
:1051E000E00605D52868000702D52846FFF7E2FF4C
:1051F000200705D52868400702D52846FFF7DBFFC2
:10520000600705D52868800702D52846FFF7D4FF38
:10521000E00705D06869000602D52846FFF7CDFFF4
:1052200070BD18480830C9E716482030C6E7154851
:105230003830C3E713485030C0E712486830BDE744
:1052400010488030BAE70F489830B7E70D48B030C3
:10525000B4E70B48B2E70A481830AFE708483030E7
:10526000ACE707484830A9E705486030A6E704489E
:105270007830A3E702489030A0E70148A8309DE7C6
:105280001064024008600240F09FFDBF548A00088D
:1052900030B404468A4211DB501A00EBD07001EBA7
:1052A000600054F820509D420AD002DDA0F10102B6
:1052B00001E000F10101204630BCE9E74FF0FF308A
:1052C00030BC70472DE9F04107462DED048BD038F6
:1052D0001D4616460C46102808D2B4F5807F05DD21
:1052E0006FF00400BDEC048BBDE8F081084601F0CE
:1052F00036FF41EC190B3C44601C01F030FF41ECDF
:10530000180B204601F02BFF9FEDFC1B53EC112BDB
:1053100001F03CFF53EC182B01F038FF53EC192B34
:1053200001F046FE01F012FE00EE100A6A1E002196
:10533000BDEEC00A304610EE103AFFF7A9FF401C40
:1053400001D00120CEE74FF0FF30CBE72DE9F74F3A
:1053500000250F2482B08A468346A8462746A946E0
:105360001DE0002612E009FB0A615BF8210001281C
:1053700026D040F21D500090BBB2A2B21FFA88F1B5
:10538000A8B2FDF7B8FF10341035761C5645EADB9D
:1053900000250F2408F1100809F1010910370499BC
:1053A0008945DEDB4FF6E430009040F20F13DF2238
:1053B0004FF48071D020FDF79EFF05B0BDE8F08F5F
:1053C0001F20D8E7F0B41346012404EB4305022460
:1053D00004EB43048D4206DA50F8256050F8227041
:1053E000BE4200DD2A468C4206DA50F8245050F8BE
:1053F0002260B54200DD22469A4209D050F823408F
:1054000050F8225040F8235040F82240F0BCD9E731
:10541000F0BC704770B50E46054601EBD6704FF0F4
:10542000FF3111EB600406D4224631462846FFF7CF
:10543000C9FF641EF8D5741E0CD455F824102868D2
:10544000296045F82400002221462846FFF7BAFFCC
:10545000641EF2D570BD2DE9F05F1E4693460D46E1
:105460000446DDF82890FFF747FA00F00301002317
:105470004FF0FF3A00200246C9B1012919D0022994
:1054800019D0524606EB000C09EB020760443A447F
:10549000002819DDA84217DA002A15DD5A4513DA6B
:1054A00007FB05CC54F82C70012F06D00CE001202E
:1054B000E8E70122E6E75046E4E702FB050754F877
:1054C0002780B8F1010F0BD0491CC81701EB907071
:1054D00020F00300091A5B1C042BCBDBBDE8F09F16
:1054E000002144F82C1044F8271006469146FFF797
:1054F00003FA00F003010023BCE72DE9F8430E4650
:10550000804617460020012106FB07F302E048F819
:105510002010401C8342FADC01250CE0012407E046
:1055200023463A46314640460095FFF794FFA41CB7
:10553000B442F5DBAD1CBD42F0DB00207F1E07FB53
:10554000066208EB8201C8F8400041F8080CBDE88B
:10555000F8832DED088B4FF0000A94B0D14601F08E
:10556000B4F9FCF78DFCFCF7E7FBFFF7AFF9FCF7AC
:1055700077FCFDF760FB0120FDF7CEFB01208DF8E5
:105580004200FFF7CCF902280BD000214FF6E4309F
:10559000CDE9000114215B4B5BA20846FDF761FCDD
:1055A000FEE70220FCF7E8FC9FED54BB40F21D51E2
:1055B00048B10020CDE90001524B57A264210A20D6
:1055C000FDF74FFCFEE717252C4640F21D50FDF776
:1055D0009FF811220F215448FFF78FFF0027B8468C
:1055E0003E46019701984FF0000BC0EB0010099068
:1055F00000EB0B014C4850F8210001287DD1002020
:105600000090404601F0ABFDB0EE4BAAF0EE6BAA65
:10561000CDE90701DDE9070141EC180B07EB0800B4
:105620000A90401C01F09BFD41EC190B0A9801F017
:1056300096FD53EC1A2B01F0A9FD53EC192B01F048
:10564000A5FD53EC182B01F0B3FC01F059FD3749CF
:105650007F1C41F826000098761C401C0090102802
:10566000D8DB00207F1E0090404601F078FD41EC21
:10567000180B07EB08000790401C01F070FD41EC8F
:10568000190B079801F06BFD53EC1A2B01F07EFD0E
:1056900053EC192B01F07AFD53EC182B01F088FC28
:1056A00001F02EFD214908F1010841F8260000987B
:1056B000761C401C00900F28D6DB0020009040464E
:1056C00001F04DFDCDE90701089941EC180B07EBFE
:1056D00008000A90401C01F042FD41EC190B0A98A9
:1056E00001F03DFD53EC1A2B01F050FD53EC192B4A
:1056F00001F04CFD53EC182B1AE054E000000000C0
:105700000000E03F3000002053544D504538313107
:10571000204572726F72000053656E736F72204580
:1057200052524F5221000000E4000020E00400200B
:1057300001F03EFC01F0E4FCFE497F1E41F826002A
:105740000098761C401C00900F2801DA0798BBE7F0
:1057500000200090404601F002FD41EC190B07EBE0
:1057600008000790401C01F0FAFC41EC180B079868
:1057700001F0F5FC53EC1A2B01F008FD53EC182B4B
:1057800001F004FD53EC192B01F012FC01F0B8FC00
:10579000E849A8F1010841F826000098761C401C51
:1057A00000900F28D6DB0BF1010B1037BBF10F0F68
:1057B00001DA09981CE701980027401C08F110083D
:1057C00001901128FFF60EAF42F2FC11D9480C915E
:1057D000FFF720FE0DA8FCF7FCFBD7480069C007C7
:1057E0005BD040F21D563046FCF792FFDFF848834D
:1057F00000270DA8FCF7EDFBCDE900760A21CF4B81
:10580000CFA20846FDF72DFBBDF93420D2A102A896
:1058100001F020F9CDE90076C84B02AA64210A20E4
:10582000FDF71FFBBDF93620CFA102A801F012F948
:10583000CDE90076C14B02AA7A210A20FDF711FBBF
:10584000BDF93820CCA102A801F004F9CDE9007619
:10585000BA4B02AA90210A20FDF703FB5246CAA1C7
:1058600002A801F0F7F8CDE90076B44B02AABC21FA
:105870000A20FDF7F6FA4A46C7A102A801F0EAF8A5
:10588000CDE90076AD4B02AAD2210A20FDF7E9FA54
:10589000D8F81000C007ACD19CE740F21D58404634
:1058A000FCF736FF11220F21BF48FFF74FFD0026FE
:1058B0004FF0020BCDE900B640F23B13462240F216
:1058C00015110520FDF710FC4FF6FF774FF49D737F
:1058D00045224FF48B7106200097FDF70CFDCDE9B2
:1058E00000B640F23B13EB2240F21511AA20FDF75F
:1058F000FBFB4FF49D73EA224FF48B71AB200097B2
:10590000FDF7F9FCA9A102A801F0A4F8AA4B02AA8C
:105910004FF48F711420CDE90067FDF7A2FAA7A11B
:1059200002A801F097F8A44B02AA4FF49171B2209B
:10593000CDE90067FDF795FA5246A2A102A801F051
:1059400089F8CDE900689C4B02AA40F21D11502055
:10595000FDF787FA4A469FA102A801F07BF8CDE93E
:105960000068954B02AA4FF496715020FDF779FA22
:105970000DA8FCF72EFB0FA8FFF7C8F8E0BBBDF899
:105980003C00801F40282AD2BDF83E00A0F58B7055
:10599000252824D24FF0000AD146524689A102A8F8
:1059A00001F058F840F21D560027CDE90076824BF1
:1059B00002AA40F21D115020FDF753FA3A4685A184
:1059C00002A801F047F8CDE900767B4B02AA4FF41C
:1059D00096715020FDF745FA322000F0EDFEBDF83B
:1059E0003C00AB38402808D2BDF83E00A0F58B70D3
:1059F000252802D2322076E1FFE71F23022221B2BE
:105A000028B2FDF787FD01201390401F00274FF0BB
:105A1000FF3802261290B8F1000F04DB1298801CA8
:105A20008044761E129013987F1C801C8044139033
:105A3000BDF934000A287BDDBDF936100A2977DA72
:105A400011F10A0FF7DD28B240F21D53022221B2F4
:105A50008346FDF75FFD641C1F23022221B25846D6
:105A6000FDF758FD142000F0A7FE324AA11C28467D
:105A70000C9BFFF727FC00285BDA2E4AA11E284664
:105A80000C9BFFF71FFC002853DA2A4A2146A81C6A
:105A90000C9BFFF717FC00284BDA264A2146A81E6C
:105AA0000C9BFFF70FFC002843DAA119E819CDE998
:105AB0000810204A0C9BFFF705FC002839DAE81B88
:105AC000079008991B4A0C9BFFF7FCFB002830DA73
:105AD000A11B8B46174A0C9B0998FFF7F3FB002884
